:020000040800F2
:10000000A8070020050F00088D0200088F020008D5
:1000100093020008970200089B02000800000000FD
:100020000000000000000000000000009F02000827
:10003000A102000800000000A3020008A5020008B9
:100040001F0F00081F0F00081F0F00081F0F0008D8
:100050001F0F00081F0F00081F0F00081F0F0008C8
:100060001F0F00081F0F00081F0F00081F0F0008B8
:100070001F0F00081F0F00081F0F00081F0F0008A8
:100080001F0F00081F0F00081F0F00081F0F000898
:100090001F0F00081F0F00081F0F00081F0F000888
:1000A0001F0F00081F0F00081F0F00081F0F000878
:1000B0001F0F0008FD090008C50900081F0F0008F0
:1000C0001F0F00081F0F00081F0F00081F0F000858
:1000D0001F0F0008390E0008D50400081F0F000884
:1000E0001F0F00081F0F00081F0F00081F0F000838
:1000F0001F0F00081F0F00081F0F00081F0F000828
:100100001F0F00081F0F00081F0F00081F0F000817
:100110001F0F00081F0F00081F0F00081F0F000807
:100120001F0F00081F0F00081F0F00081F0F0008F7
:1001300000F002F800F03CF80AA090E8000C8244BD
:100140008344AAF10107DA4501D100F031F8AFF29A
:10015000090EBAE80F0013F0010F18BFFB1A43F0A5
:1001600001031847BC350000DC350000103A24BFFD
:1001700078C878C1FAD8520724BF30C830C144BF0C
:1001800004680C607047000000230024002500264E
:10019000103A28BF78C1FBD8520728BF30C148BFEA
:1001A0000B607047002070471FB51FBD10B510BD14
:1001B00002F064FF1146FFF7F7FF00F009F802F0C4
:1001C00082FF03B4FFF7F2FF03BC00F0AFFD0000B5
:1001D0001CB5002428A103C9CDE900014FF4E011AA
:1001E0004FF4803000F028FB00F0E6FB00F0AFFB9E
:1001F00000F032FD4FF4165000F08DF94FF4165018
:1002000000F0A2FD00F040F935E000201C4988779D
:100210000821684600F0E7F94FF4FA7000F059FD44
:1002200023E01848006808B9012000E000201549C3
:100230000860022C04DD002400201149087715E035
:100240000F48017F401C00F01FFA0F48007801287A
:1002500005D0601CC4B2012000F03BFD05E000F0B9
:10026000A7FC00200849087000E0DAE700BF4FF45F
:100270007A7000F02EFDC8E7020300000001843907
:100280003C0000209481214214000020704700BFF0
:10029000FEE700BFFEE700BFFEE700BFFEE77047D6
:1002A00070477047704700000CB500200190009027
:1002B0006C48006840F480306A49086000BF6948B3
:1002C000006800F4003000900198401C01900098F4
:1002D00018B90198B0F5A06FF1D16248006800F438
:1002E000003010B10120009001E000200090009843
:1002F000012843D15C48006840F010005A4908606A
:100300000846006820F0030008600846006840F0D6
:1003100002000860534840685249486008464068F7
:1003200048600846406840F480604860084640687D
:1003300020F47C1048600846406840F4E8104860AB
:100340000846006840F08070086000BF45480068BB
:1003500000F000700028F9D04248406820F0030007
:10036000404948600846406840F00200486000BFCD
:100370003C48406800F00C000828F9D10CBD10B5CD
:10038000FFF792FF10BD10B53648006840F001003D
:10039000344908600846406834490840314948609B
:1003A00008460068324908402E490860084600683F
:1003B00020F4802008600846406820F4FE00486071
:1003C0004FF41F008860FFF7DAFF4FF00060294903
:1003D000086010BD10B5002100200022214B5B6891
:1003E00003F00C0121B1042906D0082928D107E027
:1003F000214B224C236027E01F4B204C236023E03D
:10040000184B5B6803F47010164B5B6803F4803282
:10041000022303EB904022B9194B4343174C23604E
:100420000DE0104B5B6803F4003323B1144B4343DE
:10043000124C236003E0104B4343104C236003E055
:100440000D4B0E4C236000BF00BF064B5B68C3F32F
:1004500003130C4CE15C094B1B68CB40074C236039
:1004600010BD000000100240002002400000FFF814
:10047000FFFFF6FE08ED00E000127A000000002009
:1004800000093D000400002008B50121482001F0CA
:10049000E3F82020ADF8000010208DF803000320C1
:1004A0008DF802006946094800F01AFE202107482D
:1004B00000F0C3FE2020ADF800006946044800F0BB
:1004C0000FFE2021024800F0B8FE08BD000C0140DC
:1004D0000018014010B540F22551584801F0E0FAEB
:1004E000C0B140F22551554801F004FB534801F0DA
:1004F00057FAC4B25248017F401C4454401E007F4A
:10050000401C4F490877002088610846007F012879
:1005100000D1487710BD10B586B0044601212420D3
:1005200001F09AF80121480401F0A3F88020ADF809
:10053000140010208DF8170003208DF8160005A96F
:10054000404800F0CDFD0420ADF8140018208DF8CF
:10055000170005A93C4800F0C3FD0820ADF81400C1
:1005600004208DF8170005A9374800F0B9FD0121D6
:10057000480401F098F800214FF4003001F093F89E
:1005800001940020ADF80800ADF80A00ADF80C00A9
:10059000ADF810000C20ADF80E0001A9274801F0BD
:1005A00002F94FF4A06000F0CDFC26208DF8000089
:1005B00001208DF8010002208DF8020001208DF845
:1005C0000300684600F0C3FC012240F225511B489D
:1005D00001F081F90121194801F071F900201B494E
:1005E000086006B010BD70B505460E4601201749DB
:1005F0000860002414E000BF4021104801F03AFADE
:100600000028F9D0295D0D4801F0C6F910480068AE
:1006100008B9012000E000200D490860601CC4B248
:10062000B442E8DB00BF4021044801F023FA00286F
:10063000F9D000200549086070BD0000004400406A
:100640003C00002000140140000801409C8122422F
:100650009401234210B502464FF6FF7009E012F8EC
:10066000013B4340DBB2074C34F8233083EA2023BC
:1006700098B20B1EA1F10101F1D110BD0A12027056
:1006800041707047203300082DE9F04F8DB00546CA
:100690000E4602204D4908704FF0030B0846807F3C
:1006A00010B90DB0BDE8F08F287848490978884224
:1006B0007AD16878584573D100240DE0B01EA0426D
:1006C00003DD285D09A9085504E0295DB01E201A44
:1006D0000CAA1154601CC4B2B442EFDBB11E09A8CD
:1006E000FFF7B8FF089007A80899FFF7C7FF9DF824
:1006F0001C909DF81DA09DF8310048454CD19DF8F7
:100700003000504548D195F80280002705E0F81CDC
:10071000285C04A9C855781CC7B24745F7DBB8F177
:10072000020F03D0B8F1040F2FD10FE09DF8111084
:100730009DF810204FF4807303FB021002F092FD2D
:100740002349029002F0CCFC039022E09DF81110A6
:100750009DF810204FF4807303FB021002F082FD1D
:100760001B49019002F0BCFC03909DF813109DF80A
:1007700012204FF4807303FB021002F073FD144942
:10078000019002F0ADFC029003E012A002F0BAFB6F
:1007900000BF0CE008E003E010A002F0B3FB06E0AD
:1007A00015A002F0AFFB02E01AA002F0ABFB074875
:1007B000007F1F4981F8840000200449087788776A
:1007C00001201C49087000BF6BE700003C000020BE
:1007D000000020416572726F720D0A00637263D06F
:1007E000A3D1E9B2BBCDA8B9FDA3ACB4ABCAE4D3E5
:1007F000D0CEF30D0A000000B9A6C4DCC2EBB2BB38
:10080000D2BBD6C2A3ACB4ABCAE4D3D0CEF30D0AEC
:1008100000000000B5D8D6B7C2EBB2BBD2BBD6C27F
:10082000A3ACB4ABCAE4D3D0CEF30D0A00000000F1
:10083000C00000201400002030B587B004460D46EB
:100840000020069000F09AFD9CB14FF4803000F03B
:10085000B5FD00F0F2FD012801D1069012E0002460
:100860004FF46015002000F0A9FD012000F00BFE00
:1008700008E000244FF46015002000F09FFD0120E7
:1008800000F001FE002000F01EFE4FF4806000F03A
:1008900023FE002000F029FE022002F053F8102071
:1008A00002F064F82946204600F0F0FD012000F037
:1008B000F9FD00BF392000F0A4FD0028FAD0022085
:1008C00000F0F3FD00BF00F0F9FD0828FBD1012086
:1008D00000F0FAFE01A800F052FE07B030BD0EB5E0
:1008E0000121022000F0C5FE6320ADF8040047207E
:1008F000ADF800000020ADF80600ADF802008DF85C
:10090000080069464F4801F0E3F901214D4802F023
:1009100001F8012211464B4801F051FD01214948DF
:1009200001F032FD0EBD08B54FF4A06000F00AFBE7
:100930001D208DF8000003208DF8010001208DF8A6
:1009400002008DF80300684600F001FB08BD1FB5EA
:100950000121042000F08DFE40F2CF70ADF80800B8
:100960004720ADF804000020ADF80A00ADF80600FD
:1009700001A9354801F0ACF90121334801F0CAFF63
:1009800001221146304801F01AFD4FF4A06000F03A
:10099000D9FA1E208DF8000002208DF801000120F8
:1009A0008DF802008DF80300684600F0D0FA0121AE
:1009B000254801F0E9FC1FBD10B5FFF790FFFFF7D8
:1009C000B2FF10BD10B501211F4801F0A6FFA0B174
:1009D0001E48407F68B11D488069401C1B498861E2
:1009E00008468069022804D90020487788610120E0
:1009F00088770121144801F0A1FF10BD10B5012135
:100A0000104801F08AFFD8B1114890F8860098B1DB
:100A10000F4890F88700401C0D4981F88700084670
:100A200090F88700282807DD002081F8860081F8EB
:100A30008700012081F885000121024801F07EFF36
:100A400010BD000000040040000800403C000020F1
:100A5000C0000020794991F88410784A82F8831008
:100A6000002006E076490A5C744942310A54411C70
:100A7000C8B2724991F883108142F3DC704730B5F7
:100A8000024600200DE0145C6C4B42331C540428D9
:100A900001D0052803D1145C431F684DEC54431C5E
:100AA000D8B28842EFDB65480378407803EB00203A
:100AB000644B186030BD70B504460D4610205F4988
:100AC00081F88200A91E2046FFF7C4FD0646062DC8
:100AD00024DDA81E215C681E205C41EA0020B04293
:100AE0001AD12078554991F88210884212D1607845
:100AF000032802D0062808D102E0FFF7ABFF06E08A
:100B000029462046FFF7BBFF01E0032070BD00BF70
:100B10000020FBE70120F9E70220F7E70420F5E7D2
:100B20002DE9F04105460E46474800680120474937
:100B3000C1F8B4010027414890F882003F4981F88C
:100B40004200084680F8435080F844600321423058
:100B5000FFF780FD0746390A384880F8451080F8CD
:100B6000467000240EE000BF4021394800F082FFAB
:100B70000028F9D031484230015D354800F00CFFC3
:100B8000601CC4B2052CEEDB00BF4021304800F0F1
:100B900071FF0028F9D02C48006800202B49C1F8CB
:100BA000B40140212548423002F0ECF9BDE8F08163
:100BB00010B5224890F8850000B910BD1F4890F884
:100BC0008310801CFFF777FF30B91C4890F8831022
:100BD000423000F05DF929E0184890F88310801C3D
:100BE000FFF769FF0446012C06D0022C0AD0032C23
:100BF0000ED0042C18D111E0022116480078FFF71E
:100C00008FFF11E0082113480078FFF789FF0BE000
:100C1000012110480078FFF783FF05E003210D480C
:100C20000078FFF77DFF00BF00BF00BF0020034931
:100C300081F8830081F8850000BFBEE7C000002076
:100C40003D00002018000020B00121420000214298
:100C5000003801402400002010B56FF0040000F0BF
:100C6000C0F92E4800682E49B0FBF1F02D490870FC
:100C70000846007800EB4001C1EBC0104FF6FF7151
:100C800001EAC0002849088010BD0146254A1278B3
:100C90004A434FF0E0235A6100229A611A461269D2
:100CA00042F001021A6100BF4FF0E022106900F02B
:100CB00001021AB100F48032002AF5D04FF0E02290
:100CC000126922F001024FF0E0231A6100229A61BA
:100CD00070470146144A12884A434FF0E0235A6194
:100CE00000229A611A46126942F001021A6100BF9D
:100CF0004FF0E022106900F001021AB100F48032D6
:100D0000002AF5D04FF0E022126922F001024FF0E4
:100D1000E0231A6100229A61704700000000002061
:100D200000127A001C0000201E00002000BF704747
:100D300000BF6D4A128802F04002002AF9D0C2B208
:100D4000694B1B1D1A80704710B586B004460121FF
:100D500044F2040000F080FC4FF48050ADF8140021
:100D600010208DF8170003208DF8160005A95F48A4
:100D700000F0B6F94FF40050ADF8140010208DF8D3
:100D8000170003208DF8160005A9584800F0A8F9AF
:100D90004FF40070ADF8140018208DF8170005A965
:100DA000524800F09DF94FF48060ADF81400042023
:100DB0008DF8170005A94D4800F092F9012188032C
:100DC00000F064FC00214FF4804000F05FFC4FF421
:100DD000A06000F0B7F825208DF8000000208DF805
:100DE000010001208DF802008DF80300684600F034
:100DF000AEF801940020ADF80800ADF80A00ADF897
:100E00000C00ADF810000C20ADF80E0001A936481A
:100E100000F0C9FC012240F22551334800F05BFD8F
:100E20000121314800F04BFD314800680020314974
:100E3000C1F8B40106B010BD10B540F225512A48E2
:100E400000F02EFE18B340F22551274800F052FE64
:100E5000254800F0A5FDC4B2274890F88310801CF7
:100E60004454801E90F88300012806D1224981F85D
:100E700086000846C078214908701F4890F8830012
:100E8000401C1D4981F88300002081F8870010BDB7
:100E900070B505460E461648006801201549C1F890
:100EA000B40100240CE000BF40210F4800F0E2FD37
:100EB0000028F9D0295D0C4800F06EFD601CC4B21A
:100EC000B442F0DB00BF40210D4800F0D3FD002804
:100ED000F9D00748006800200649C1F8B4010A208B
:100EE000FFF7D3FE70BD000000380140000801404C
:100EF000B001214200002142C00000202400002057
:100F0000004400400948804709480047FEE7FEE7E3
:100F1000FEE7FEE7FEE7FEE7FEE7FEE7FEE7FEE7A9
:100F200004480549054A064B70470000870300083E
:100F300031010008A8010020A8070020A803002014
:100F4000A803002031490143314A1160704770B550
:100F5000002100230F22C47804B32D4C246804F42C
:100F6000E064C4F5E064210AC1F10403CA40447896
:100F700004FA03F18478144021430901254C0678D2
:100F8000A155047804F01F050124AC4005786D11CB
:100F9000AD0005F1E025C5F8004109E0047804F052
:100FA0001F050124AC401C4D0678761145F82640FB
:100FB00070BD1A4A0A400243154B1B1F1A60704746
:100FC00039B1134A121D12680243114B1B1D1A60DE
:100FD00006E00F4A121D126882430D4B1B1D1A605A
:100FE0007047042808D14FF0E021096941F004015D
:100FF0004FF0E022116107E04FF0E021096921F094
:1010000004014FF0E0221161704700000000FA0572
:101010000CED00E000E400E080E100E080FFFF1F55
:1010200010B50446CC48844208D10121042000F0C8
:101030002DFB0021042000F029FB46E0C748844234
:1010400008D10121082000F021FB0021082000F038
:101050001DFB3AE0C248844208D10121102000F073
:1010600015FB0021102000F011FB2EE0BD4884424A
:1010700008D10121202000F009FB0021202000F0F0
:1010800005FB22E0B848844208D10121402000F04D
:10109000FDFA0021402000F0F9FA16E0B34884423E
:1010A00008D10121802000F0F1FA0021802000F019
:1010B000EDFA0AE0AE48844207D10121801500F024
:1010C000E5FA0021A01500F0E1FA10BD10B50121EC
:1010D000084600F0DBFA0021012000F0D7FA10BD2D
:1010E0002DE9F041024600250026002000230024BF
:1010F000002791F803C00CF00F0591F803C00CF025
:10110000100CBCF1000F03D091F802C04CEA0505A9
:1011100091F800C0BCF1000F31D0146800202BE022
:101120004FF0010C0CFA00F3B1F800C00CEA030612
:101130009E4220D183004FF00F0C0CFA03F7BC4302
:1011400005FA03FC4CEA040491F803C0BCF1280F33
:1011500006D14FF0010C0CFA00FCC2F814C00AE0F2
:1011600091F803C0BCF1480F05D14FF0010C0CFA07
:1011700000FCC2F810C0401C0828D1D31460B1F89C
:1011800000C0BCF1FF0F34DD546800202EE000F1F8
:10119000080C4FF0010808FA0CF3B1F800C00CEA93
:1011A00003069E4221D183004FF00F0C0CFA03F787
:1011B000BC4305FA03FC4CEA040491F803C0BCF1FB
:1011C000280F05D100F1080C08FA0CF8C2F81480B9
:1011D00091F803C0BCF1480F07D100F1080C4FF0A3
:1011E000010808FA0CF8C2F81080401C0828CED379
:1011F0005460BDE8F0814FF6FF71018002218170DB
:101200000421C17070470246002093680B400BB167
:10121000012000E0002070470146886880B27047D6
:1012200002460020D3680B400BB1012000E00020F3
:1012300070470146C86880B27047016170474161DC
:1012400070470AB1016100E041617047C1607047B9
:101250004FF480320A4382618161826182698269CE
:10126000704702460020434B18684FF680731840C1
:1012700040EA021008433F4B186070473E49C8617E
:101280007047F0B50A46002300240021002500F035
:101290000046B6F1004F02D1364EF16901E0354EFD
:1012A0007168C0F3034583B200F44016B6F5401FE1
:1012B00008D121F070612F4E766826F070662D4FB0
:1012C0007E6012E000F48016B6F5801F06D103267A
:1012D00006FA05F4A14341F0706106E0460D3601BF
:1012E00003FA06F6B14341F0706122B1460D3601B2
:1012F00003FA06F6314300F00046B6F1004F02D182
:101300001C4EF16101E01B4E7160F0BD30B5002252
:101310008B071C0F0F2303FA04F2164B08338C10B3
:1013200053F824309343134C08348D1044F825307F
:1013300023468C1053F824308C07240F00FA04F451
:1013400023430C4C08348D1044F8253030BD0A4935
:10135000DC3108607047000000080140000C0140CB
:10136000001001400014014000180140001C014021
:10137000002001400000014000002042DF480068DA
:1013800040F00100DD49086008464068DC4908403B
:10139000DA49486008460068DA490840D7490860D9
:1013A0000846006820F4802008600846406820F461
:1013B000FE0048604FF41F0088607047CF490968FD
:1013C00021F48031CD4A11601146096821F4802151
:1013D0001160B0F5803F03D0B0F5802F0ED106E04C
:1013E000C649096841F48031C44A116007E0C34925
:1013F000096841F4A021C14A116000E000BF00BFAC
:10140000704710B501460022002300204A11012A2E
:1014100002D1BA4C236806E0022A02D1B74C236AF3
:1014200001E0B64C636A01F01F02012494401C40A5
:101430000CB1012000E0002010BD38B50020009064
:101440000024002500BF3120FFF7DBFF0546009890
:10145000401C00900098B0F5A06F01D0002DF2D094
:101460003120FFF7CEFF08B1012400E00024204620
:1014700038BD01460020A14A106820F0F80040EA7B
:10148000C10010607047A049086070470246002004
:101490009A4B586820F47C1042EA01031843974B9A
:1014A0005860704798490866704701460020934A83
:1014B000506820F003000843506070478F48406830
:1014C00000F00C007047014600208C4A506820F064
:1014D000F00008435060704701460020874A50687A
:1014E00020F4E06008435060704701460020834AC2
:1014F000506820F4605040EAC1005060704729B144
:101500007E4A527A02437D4B5A7204E07B4A527AF9
:1015100082437A4B5A7270477B49D83108607047D2
:1015200001460020754A506820F44040084350604E
:1015300070470021714A20321170704A82F82010E1
:10154000012802D004280AD104E001216B4A20328C
:10155000117005E00521694A2032117000E000BFDA
:1015600000BF70476949086070476449096A0143D0
:10157000624A11627047654944390860704730B566
:1015800000210022002400235C4D6D6805F00C0151
:1015900021B1042905D0082923D105E05C4D05605F
:1015A00022E05B4D05601FE0544D6D6805F470123C
:1015B000524D6D6805F48034022505EB92421CB94A
:1015C000544D554305600BE04C4D6D6805F40035F6
:1015D0001DB1504D5543056002E04D4D554305602A
:1015E00002E04B4D056000BF00BF444D6D6805F043
:1015F000F0010909484D6B5C0568DD4045603F4DD1
:101600006D6805F4E061090A434D6B5C4568DD4097
:1016100085603A4D6D6805F46051C90A3E4D6B5CBA
:101620004568DD40C560354D6D6805F44041890B66
:101630003A4D6B5CC568B5FBF3F5056130BD29B16A
:101640002E4A526902432D4B5A6104E02B4A5269DB
:1016500082432A4B5A61704729B1284A9269024352
:10166000264B9A6104E0254A92698243234B9A6192
:10167000704729B1214AD2690243204BDA6104E064
:101680001E4AD26982431D4BDA61704729B11B4A59
:10169000D2680243194BDA6004E0184AD2688243E8
:1016A000164BDA60704729B1144A12690243134B92
:1016B0001A6104E0114A12698243104B1A617047A3
:1016C00012494039086070470F49C86470470B4998
:1016D000C87170470948406A40F080700749486205
:1016E000704701460020054A92680A400AB101206D
:1016F00000E00020704701498872704700100240E6
:101700000000FFF8FFFFF6FE000042428004424264
:1017100000127A0000093D0025000020350000205D
:1017200010B50446FB48844209D101218803FFF724
:10173000ADFF00214FF48040FFF7A8FF32E0F648EC
:10174000844209D101214804FFF7ADFF00214FF485
:101750000030FFF7A8FF25E0F048844209D10121BD
:101760008804FFF7A0FF00214FF48020FFF79BFFC4
:1017700018E0EB48844209D10121C804FFF793FF28
:1017800000214FF40020FFF78EFF0BE0E548844274
:1017900008D101210805FFF786FF00214FF48010D2
:1017A000FFF781FF10BD2DE9F04786B005460E46D4
:1017B0000024A24600BFA1460027B08900B100BFA7
:1017C0002F462C8A4CF6FF700440F08804432C828C
:1017D000AC894EF6F3100440B08831890843718912
:1017E00008430443AC81AC8A4FF6FF400440B08903
:1017F0000443AC8201A8FFF7C2FEC648874202D16B
:10180000DDF810A001E0DDF80CA0A88900F400408C
:1018100040B10AEBCA0000EB0A1031684900B0FB86
:10182000F1F807E00AEBCA0000EB0A103168890002
:10183000B0FBF1F86420B8FBF0F00401200964214A
:1018400001FB1089A88900F4004040B1322000EB70
:10185000C900B0FBF1F000F00700044308E03220BB
:1018600000EB09106421B0FBF1F000F00F0004431D
:101870002C8106B0BDE8F0874FF4165101600021BD
:101880008180C18001810C214181002181817047CB
:1018900010B502460020108A4FF2FF0318400B8853
:1018A0004C8823438C882343CC88234318431082DD
:1018B00010BD0021018041808180C180704721B12D
:1018C000828942F40052828104E082894DF6FF73DE
:1018D0001A4082817047F0B5034600240026002597
:1018E000002040F66A17B94200D100BF1846C1F384
:1018F000421401F01F06012707FA06F5012C01D159
:101900000C3004E0022C01D1103000E014301AB188
:1019100007682F43076002E00768AF430760F0BD28
:101920001AB1838A0B43838202E0838A8B438382CA
:101930007047028A4FF6F0731A400282028A0A4305
:101940000282704782894FF2FF731A408281828936
:101950000A438281704721B1828942F0020282816A
:1019600004E082894FF6FD731A4082817047028A33
:101970004FF6DF731A400282028A0A4302827047DE
:1019800021B1028A42F48042028204E0028A4BF6CC
:10199000FF731A4002827047C1F3080282807047C9
:1019A00001468888C0F308007047818941F0010131
:1019B00081817047028BD2B20283028B42EA0122FC
:1019C00002837047028B02F47F420283028B0A4338
:1019D0000283704721B1828A42F02002828204E0B1
:1019E000828A4FF6DF731A408282704721B1828A61
:1019F00042F01002828204E0828A4FF6EF731A40AE
:101A00008282704721B1828A42F00802828204E019
:101A1000828A4FF6F7731A408282704721B1828919
:101A200042F40042828103E08289C2F30E02828185
:101A3000704721B1828A42F40062828204E0828A85
:101A40004FF2FF731A4082827047828A4FF6FB730F
:101A50001A408282828A0A438282704721B1828A36
:101A600042F00202828204E0828A4FF6FD731A403D
:101A70008282704702460020B1F5007F00D100BF8E
:101A800013880B400BB1012000E00020704701F4E7
:101A90000072B2F5007F00D100BFCA4302807047D8
:101AA00070B50246002400230025002040F66A1687
:101AB000B14200D100BFC1F3421501F01F0301265E
:101AC00006FA03F3012D02D19689334006E0022D78
:101AD00002D1168A334001E0968A33400C12012667
:101AE00006FA04F41688344013B10CB1012000E06A
:101AF000002070BD10B50022002340F66A14A142F8
:101B000000D100BF0A1201249440A3B2DC43048038
:101B100010BD000000380140004400400048004073
:101B2000004C00400050004010B50446FE4884427E
:101B300008D10121C014FFF7A9FD0021E014FFF72F
:101B4000A5FDC4E0B4F1804F08D101210846FFF79C
:101B5000AAFD00210120FFF7A6FDB8E0F34884426A
:101B600008D101210220FFF79EFD00210220FFF78E
:101B70009AFDACE0EE48844208D101210420FFF731
:101B800092FD00210420FFF78EFDA0E0E948844289
:101B900008D101210820FFF786FD00210820FFF76A
:101BA00082FD94E0E448844208D101211020FFF72F
:101BB0007AFD00211020FFF776FD88E0DF4884429F
:101BC00008D101212020FFF76EFD00212020FFF722
:101BD0006AFD7CE0DA48844208D101214014FFF715
:101BE00055FD00216014FFF751FD70E0D548844297
:101BF00009D10121C804FFF749FD00214FF400205D
:101C0000FFF744FD63E0D048844209D10121080573
:101C1000FFF73CFD00214FF48010FFF737FD56E041
:101C2000CA48844209D101214805FFF72FFD002150
:101C30004FF40010FFF72AFD49E0C548844208D15F
:101C400001214020FFF72FFD00214020FFF72BFD51
:101C50003DE0C048844208D101218020FFF723FDE8
:101C600000218020FFF71FFD31E0BB48844208D1EE
:101C700001218015FFF717FD0021A015FFF713FDC7
:101C800025E0B648844209D101210804FFF7FEFC93
:101C900000214FF48030FFF7F9FC18E0B04884428F
:101CA00009D101214804FFF7F1FC00214FF4003075
:101CB000FFF7ECFC0BE0AB48844208D1012188041B
:101CC000FFF7E4FC00214FF48020FFF7DFFC10BD9C
:101CD00000220288944B98420ED0994B98420BD028
:101CE000B0F1804F08D0914B984205D0904B98426C
:101CF00002D0904B984204D14FF68F731A404B8814
:101D00001A438D4B984207D08C4B984204D04FF623
:101D1000FF431A40CB881A4302808B8883850B8847
:101D20000385814B98420BD0854B984208D08B4B52
:101D3000984205D08A4B984202D08A4B984201D1F2
:101D40000B7A038601238382704770B5002400223A
:101D50000023058C4FF6FE7635400584028C83887F
:101D6000048B4FF68F752C40B51E2C400D882C43EC
:101D7000751E2A400D892A434D882A436A4DA84280
:101D80000BD06F4DA84208D0744DA84205D0744DB9
:101D9000A84202D0734DA84213D14FF6F7752A40DE
:101DA0004D892A434FF6FB752A408D882A434FF60A
:101DB000FF652B404FF6FF552B408D892B43CD8976
:101DC0002B4383800483CD888586028470BD70B5E3
:101DD000002400220023058C4FF6EF763540058461
:101DE000028C8388048B48F6FF752C404FF6FF4524
:101DF0002C400D884FF6FF7606EA05252C434FF65A
:101E0000DF752A400D8906EA05152A434D8806EA42
:101E100005152A43444DA84202D0494DA8421DD180
:101E20004FF67F752A404D894FF6FF7606EA051575
:101E30002A434FF6BF752A408D8806EA05152A43C6
:101E40004FF6FF352B404FF2FF752B408D8906EA88
:101E500085052B43CD8906EA85052B4383800483C2
:101E6000CD880587028470BD70B500240022002350
:101E7000058C4FF6FF6635400584028C8388848B81
:101E80004FF68F752C404FF6FC752C400D882C4377
:101E90004FF6FF552A400D894FF6FF7606EA0525D5
:101EA0002A434D8806EA05252A431F4DA84202D041
:101EB000234DA8421DD14FF2FF752A404D894FF6A0
:101EC000FF7606EA05252A434FF6FF352A408D881E
:101ED00006EA05252A434EF6FF752B404DF6FF75A1
:101EE0002B408D8906EA05152B43CD8906EA051599
:101EF0002B4383808483CD888587028470BD70B531
:101F0000002200230024058C4EF6FF763540058420
:101F1000038C8488828B48F6FF752A404FF6FF4574
:101F20002A400D8820E00000002C01400004004001
:101F300000080040000C0040001000400014004069
:101F400000340140004C0140005001400054014069
:101F500000180040001C00400020004000400140EC
:101F600000440140004801404FF6FF7606EA05258F
:101F70002A434DF6FF752B400D8906EA05352B43A4
:101F80004D8806EA05352B43FA4DA84202D0FA4D9A
:101F9000A84208D14BF6FF752C408D894FF6FF768D
:101FA00006EA85152C4384808283CD88A0F84050B2
:101FB000038470BD828B4FF2FF331A408283828B81
:101FC0004FF6FF7303EA01231A4382837047F0B58B
:101FD0000C461546002200210026078C4EF6FF7C99
:101FE00007EA0C070784828B018C4FF6FF7707EA1C
:101FF000043640F6FF473A404FF6FF7707EA0527D9
:102000003A434FF6FF7707EA03373A43D94FB842CE
:102010000ED0D94FB8420BD0B0F1804F08D0D74F77
:10202000B84205D0D64FB84202D0D64FB84206D1FA
:102030004DF6FF77394046F48057394305E047F6BF
:10204000FF57394044F48057394382830184F0BDFF
:10205000828B4FF6F3731A408283828B0A4382830A
:102060007047F0B50C461546002200210026078C6B
:102070004FF6FF6C07EA0C070784828B018C4FF642
:10208000FF7707EA04264FF60C773A404FF6FF77C2
:1020900007EA03172F433A43B64FB8420ED0B64F64
:1020A000B8420BD0B0F1804F08D0B44FB84205D041
:1020B000B34FB84202D0B34FB84206D14FF6FF57E4
:1020C000394046F48077394305E04FF2FF573940F5
:1020D00044F48077394382830184F0BD028B4FF250
:1020E000FF331A400283028B4FF6FF7303EA01238A
:1020F0001A4302837047F0B50C46154600220021B2
:102100000026078C4FF6EF7C07EA0C070784028B4A
:10211000018C4FF6FF7707EA041640F6FF473A4076
:102120004FF6FF7707EA03373A434FF6FF7707EAA0
:1021300005273A438F4FB8420ED08F4FB8420BD08D
:10214000B0F1804F08D08D4FB84205D08C4FB842C7
:1021500002D08C4FB84206D14FF6DF77394046F0B7
:102160001007394305E04FF65F77394044F0100718
:10217000394302830184F0BD028B4FF6F3731A409A
:102180000283028B0A4302837047F0B50C46154662
:1021900000220021068C4FF6FE773E400684028B1B
:1021A000018C4FF60C7632407E1C06EA03162E4355
:1021B0003243704EB0420ED06F4EB0420BD0B0F1F1
:1021C000804F08D06D4EB04205D06D4EB04202D067
:1021D0006C4EB04206D14FF6FD76314044F0010618
:1021E000314305E04FF6F576314044F001063143C6
:1021F00002830184F0BD70B505460C465D488542FA
:102200000ED05D4885420BD0B5F1804F08D05B48B9
:10221000854205D05A48854202D05A48854200D1AD
:1022200000E000BF208850B92389A2886188284631
:10223000FFF7ABFFE1882846FFF79EFF25E02088E7
:1022400004280AD12389A28861882846FFF753FF12
:10225000E1882846FFF742FF17E0208808280AD1C6
:102260002389A28861882846FFF7FBFEE18828467B
:10227000FFF7EEFE09E02389A28861882846FFF770
:10228000A6FEE1882846FFF795FE70BD2DE9F041D6
:1022900005460C4600260127608808B9022600E0A2
:1022A0000026A088012801D1022700E0012720880C
:1022B000A0B92389A28861882846FFF766FFE188D4
:1022C0002846FFF759FF23893A4631462846FFF74B
:1022D00012FFE1882846FFF701FF13E02389A28857
:1022E00061882846FFF707FFE1882846FFF7F6FEDA
:1022F00023893A4631462846FFF747FFE1882846BA
:10230000FFF73AFFBDE8F0810A884B881A438B88B3
:102310001A43CB881A430B891A434B891A438B897A
:102320001A43A0F8442070474FF6FF7181800021C6
:102330000180C1804180017270470021018041808D
:102340008180C180018141818181C18170470021EB
:1023500001804180012181800021C180018170477D
:102360000021018041808180C18001814181818182
:1023700070470000002C0140003401400004004080
:1023800000080040000C004021B1028842F0010228
:10239000028004E002884FF6FE731A400280704704
:1023A00031B1B0F8442042F40042A0F8442005E0E6
:1023B000B0F84420C2F30E02A0F8442070471AB1CE
:1023C00083890B43838102E083898B438381704738
:1023D0008182704741EA0203A0F8483070471AB181
:1023E00083890B43838102E083898B438381704718
:1023F00001894FF6F8721140018170470A460021A9
:1024000001894FF68F73194011430181704730B530
:1024100004460D4629462046FFF7F0FF208940F08C
:102420000700208130BD2DE9F04104460D461646D7
:102430001F46602D06D13B46012231462046FFF75C
:102440005AFE05E03B46012231462046FFF79DFE3D
:1024500029462046FFF7D2FF208940F0070020815F
:10246000BDE8F08130B50C4600210189C9B24FF6B4
:10247000FF7505EA0325154325432943018130BD36
:102480002DE9F04105460E4617469846002443467E
:102490003A4631462846FFF7E5FF2C894FF6F8709B
:1024A000044044F007044FF68F70044044F0700479
:1024B0002C81BDE8F081F0B504460D4616461F4656
:1024C0003B46324629462046FFF7CCFF208940F4A0
:1024D00080402081F0BD0185828270470A4600213C
:1024E00001884FF68F731940114301807047F0B592
:1024F0000C4615461E460021002200230189028B4E
:10250000038C4FF6F877394021434FF6FC473A40A9
:1025100040F201173A434FF6DD773B404FF6FF7725
:1025200007EA06172F433B43018102830384F0BD72
:102530000A460021018B4FF68F7319401143018326
:1025400070470A460021018B48F6FF7319404FF689
:10255000FF7303EA02231943018370470A460021EF
:10256000818B4FF68F7319401143818370470A4660
:102570000021818B48F6FF7319404FF6FF7303EA81
:10258000022319438183704721B1028842F08002FF
:10259000028004E002884FF67F731A400280704781
:1025A00021B1828842F00402828004E082884FF6E2
:1025B000FB731A408280704721B1828842F0080282
:1025C000828004E082884FF6F7731A408280704759
:1025D00021B1828842F00102828004E082884FF6B5
:1025E000FE731A40828070470A460021018B4FF625
:1025F000F77319401143018370470A460021018B8C
:102600004FF2FF7319404FF6FF7303EA0223194399
:10261000018370470A460021818B4FF6F7731940FA
:102620001143818370470A460021818B4FF2FF736B
:1026300019404FF6FF7303EA022319438183704761
:102640000A460021018B4FF6FB73194011430183A9
:1026500070470A460021018B4FF6FF3319404FF6B1
:10266000FF7303EA02231943018370470A460021DE
:10267000818B4FF6FB7319401143818370470A46E3
:102680000021818B4FF6FF3319404FF6FF7303EAA9
:1026900002231943818370470A460021018B4FF6BC
:1026A0007F7319401143018370470A460021018B53
:1026B000C1F30E014FF6FF7303EA022319430183AE
:1026C00070470A460021818B4FF67F7319401143F2
:1026D000818370470A460021818BC1F30E014FF6BA
:1026E000FF7303EA02231943818370470A460021DE
:1026F000018C4FF6FD7319401143018470470A465F
:102700000021018C4FF6F773194011430184704783
:102710000A460021018C4FF6DF7319404FF6FF7314
:1027200003EA02131943018470470A460021018C11
:102730004FF67F7319404FF6FF7303EA02131943F4
:10274000018470470A460021018C4FF6FF5319405F
:102750004FF6FF7303EA02231943018470470A46C8
:102760000021018C4FF2FF7319404FF6FF7303EA0B
:1027700002231943018470470A460021018C4DF65B
:10278000FF7319404FF6FF7303EA023319430184C4
:10279000704730B5002301248C40A3B2048C9C43C5
:1027A0000484048C02FA01F5ADB22C43048430BDDC
:1027B00030B5002304248C40A3B2048C9C430484D1
:1027C000048C02FA01F5ADB22C43048430BD70B51F
:1027D0000346002000241846183001258D40ACB275
:1027E0001D8CA5431D8409B1082909D100EB6100A6
:1027F000056825F0700505600568154305600EE065
:102800000D1FC5F34E052844056825F4E045056015
:1028100005684FF6FF7606EA02263543056070BD6F
:1028200021B1028842F00202028004E002884FF6E1
:10283000FD731A400280704721B1028842F0040201
:10284000028004E002884FF6FB731A400280704752
:1028500021B1828842F08002828004E082884FF6B3
:102860007F731A408280704702884FF6F7731A40D0
:10287000028002880A430280704782884FF68F7375
:102880001A40828082880A438280704702894FF60C
:10289000F8731A40028102890A4302817047028953
:1028A0004FF67F731A40028102890A430281704702
:1028B00081847047818570478186704701877047A2
:1028C00081877047A0F84010704702884FF6FF4399
:1028D0001A40028002880A43028070470146888EAF
:1028E00070470146088F70470146888F7047014640
:1028F000B1F8400070470146888C70470146088D4A
:10290000704702460020138A0B400BB1012000E003
:1029100000207047CA430282704730B5024600204B
:1029200000230024158A05EA0103958905EA0104BC
:1029300013B10CB1012000E0002030BDCA43028277
:102940007047000001460020FE4A106800F0380081
:10295000084310607047FB49096821F00801F94AF3
:10296000116011460968014311607047F549096813
:1029700021F01001F34A116011460968014311600A
:102980007047F148EF494860F04848607047EE48AA
:10299000EC494860ED4848607047EA48006940F0FB
:1029A0008000E84908617047E648006940F080000F
:1029B000E449086170470420E249C96801F0010157
:1029C00009B101200EE0DF49C96801F0040109B135
:1029D000022007E0DB49C96801F0100109B10320BA
:1029E00000E00420704700B502460423FFF7E3FF30
:1029F000034603E0FFF7DFFF0346521E012B01D120
:102A0000002AF7D102B90523184600BD30B50446A7
:102A100004254FF43020FFF7E6FF0546042D17D1BB
:102A2000C848006940F00200C64908610846446190
:102A3000006940F0400008614FF43020FFF7D3FFF9
:102A40000546C048006941F6FD710840BD4908616E
:102A5000284630BD10B504244FF43020FFF7C3FFE3
:102A60000446042C16D1B748006940F00400B5496B
:102A700008610846006940F0400008614FF43020CA
:102A8000FFF7B1FF0446AF48006941F6FB7108400B
:102A9000AC490861204610BD00B502460423FFF78B
:102AA0008AFF034603E0FFF786FF0346521E012B11
:102AB00001D1002AF7D102B90523184600BD10B58F
:102AC00004244FF43020FFF7E7FF0446042C16D10E
:102AD0009C48006940F004009A4908610846006972
:102AE00040F0400008614FF43020FFF7D5FF044666
:102AF0009448006941F6FB710840924908612046FC
:102B000010BD00208F49C96901F0020109B10120FF
:102B100000E00020704730B5A5250424FFF7F1FF41
:102B200000B100254FF43020FFF75DFF0446042C70
:102B30003AD185488349886084488860084600699E
:102B400040F0200008610846006940F0400008613C
:102B50004FF43020FFF747FF0446042C1BD179487F
:102B6000006941F6DF71084076490861084600694E
:102B700040F01000086176480580E002FFF733FF5F
:102B80000446052C10D06F48006941F6EF710840EB
:102B90006C49086108E0052C06D06A48006941F6D6
:102BA000EF71084067490861204630BD78B5064698
:102BB0000C46042500200090E802FFF714FF0546AC
:102BC000042D24D15F48006940F001005D4908618F
:102BD0003480E802FFF707FF0546042D10D1B01C32
:102BE0000090200C00990880E802FFF7FCFE0546E3
:102BF0005448006941F6FE7108405249086106E0F8
:102C00005048006941F6FE7108404E490861284667
:102C100078BD70B504460D460426F002FFF7E3FECA
:102C20000646042E11D14748006940F0010045498D
:102C300008612580F002FFF7D6FE0646414800698C
:102C400041F6FE7108403F490861304670BD70B5DD
:102C500005460E460424E002FFF7C5FE0446042C98
:102C600017D1394837498860384888600846006974
:102C700040F0100008612E80E002FFF7B4FE044629
:102C8000052C06D02F48006941F6EF7108402D4908
:102C90000861204670BD2DE9F04304464FF6FF76EB
:102CA0003746B046B1460425E443E6B2C4F30727ED
:102CB000C4F307484FEA1469E802FFF794FE05469B
:102CC000042D49D120481F49886020488860084663
:102CD000006940F010000861FF2E06D01C48083043
:102CE0000680E802FFF77FFE0546042D08D1FF2F7E
:102CF00006D017480A300780E802FFF774FE054641
:102D0000042D0AD1B8F1FF0F07D011480C30A0F8FC
:102D10000080E802FFF767FE0546042D0AD1B9F1ED
:102D2000FF0F07D00A480E30A0F80090E802FFF726
:102D30005AFE0546052D0FD00248006941F6EF7195
:102D4000084007E00020024023016745AB89EFCD32
:102D500000F8FF1F664908612846BDE8F08330B5DA
:102D6000054604244FF43020FFF73DFE0446042CB2
:102D700041D160485E4988605F48886008460069C4
:102D800040F0200008610846006940F040000861FA
:102D90004FF43020FFF727FE0446042C22D154487C
:102DA000006941F6DF710840514908610846006931
:102DB00040F0100008611DB100205049088002E079
:102DC000A5204E4908804FF43020FFF70CFE044642
:102DD000052C10D04648006941F6EF71084044497F
:102DE000086108E0052C06D04148006941F6DF7112
:102DF00008403F490861204630BDF0B505460E4603
:102E0000174604243B483A4988603B488860E00202
:102E1000FFF7E9FD0446042C19D13548006940F05C
:102E200010003349086147F0F80030432843334924
:102E3000891C0880E002FFF7D6FD0446052C06D069
:102E40002B48006941F6EF71084029490861204686
:102E5000F0BD2748C069800870472548006A704760
:102E600000202349096801F0200109B1012000E098
:102E70000020704729B11E4A126902431C4B1A6197
:102E800004E01B4A12698243194B1A6170470146DC
:102E90000020012908D1164AD26902F001020AB1C4
:102EA000012008E0002006E0114AD2680A400AB179
:102EB000012000E0002070470D49C86070470420E1
:102EC0000B49C96801F0010109B101200EE0084970
:102ED000C96801F0040109B1022007E00449C9688A
:102EE00001F0100109B1032000E004207047000048
:102EF0000020024023016745AB89EFCD00F8FF1F9A
:102F0000704700000FB4044910B503AA029800F0FE
:102F10005FF810BC5DF814FB200000202DE9F041A3
:102F20000E460446002020622046E168884730B300
:102F3000252805D0D4E901219047206A401CF2E7FA
:102F4000E168204600278847050018D0A5F1410018
:102F5000192802D820354FF400673246294620460A
:102F60002760FDF71FF940B1012804D0F61D26F0B7
:102F700007060836D8E7361DD6E72846DAE7206A7E
:102F8000BDE8F0814FF000020429C0F0128010F07B
:102F9000030C00F03180CCF1040CBCF1020F18BF1F
:102FA00000F8012BA8BF20F8022BA1EB0C0100F0C8
:102FB00023B85FEAC17C24BF00F8012B00F8012B85
:102FC00048BF00F8012B7047704770477047704743
:102FD000074B70B50D467B4400F039F8044628468F
:102FE00000F048F810B14FF0FF3070BD204670BDC2
:102FF00057DDFFFF4FF0000200B51346944696469A
:10300000203922BFA0E80C50A0E80C50B1F12001FB
:10301000BFF4F7AF090728BFA0E80C5048BF0CC0A9
:103020005DF804EB890028BF40F8042B08BF704707
:1030300048BF20F8022B11F0804F18BF00F8012B79
:103040007047000001694A1C02610878704700B5AA
:103050008FB0CDE901310021059105497944CDE9D1
:10306000031011466846FFF759FF0FB000BD00007E
:10307000E5FFFFFF007B00F080007047754600F021
:103080002BF8AE4605006946534620F007008546FA
:1030900018B020B5FDF744FFBDE820404FF0000612
:1030A0004FF000074FF000084FF0000B21F0070130
:1030B000AC46ACE8C009ACE8C009ACE8C009ACE873
:1030C000C0098D46704710B50446AFF30080204616
:1030D000BDE81040FDF775B8004870474801002072
:1030E0004FF47F0C1CEAD0121EBF1CEAD11392EAE7
:1030F0000C0F93EA0C0F00F0858090EA010F48BF97
:1031000042F4807240F4000C41F400002CF07F4146
:1031100020F07F4000B58142A2EB03020FF2081CB1
:10312000ACEB504EC0F100009EF800E04FEA4E0EAE
:1031300000FB0EFC38BF49004FEA2C1C02F5FA02D6
:103140000CFB0EF34FEACE1E4FEA112C4FEAC121C1
:103150000EEB635E42EB22420EFB0CFC4FEA1C536B
:1031600000FB03114FEA112C4FEA01310EFB0CFC5E
:103170004FEADC4C00FB0C11C14228BF09184CEB94
:1031800003335DF804EB10EB410143EBC250B2F5A1
:103190007C0F38BF704729D512F0F00F1CBF00F12B
:1031A000C04000F00040704700818283848586879C
:1031B00088898B8C8D8E8F919293959697999A9CF6
:1031C0009D9FA0A2A3A5A7A8AAACAEB0B2B3B5B765
:1031D000B9BCBEC0C2C5C7C9CCCED1D4D7D9DCDF3B
:1031E000E2E6E9ECF0F3F7FAFE0000004FEA400CEB
:1031F0000CF1807CBCF17E4F28BF7047B0F1C0401D
:1032000000F089B890EA010F0CEAD11348BF42F4EC
:103210008072624538BF634507D213F47F0F16D022
:1032200080EA010000F00040704710B500F02DF872
:10323000097EFC3E00F005B880EA010000F0004085
:10324000704780EA010000F0004000F064B812F41A
:103250007F0F04BF0248704780EA010000F05BB8AE
:103260000000C07FB0FA80F310FA03F2C3F19D03AF
:103270000AD0D90501EB1220530638BF704700F180
:10328000010008BF20F0010070470EF1020E2EF081
:10329000030E5EF8044B244204D44FEA4102B2F11B
:1032A0007F4F11D84FEA4003B3F17F4F0CD80ED1B6
:1032B0004FEAD07CB2F17F4F0CEB4C0C0CF1020CBE
:1032C00008BF4CEBD17C04E04FF0080C01E04FEA62
:1032D000D17C0CEB4C0324FA03F404F00704B4F1A2
:1032E000040C06D20EEB840CBDE810404CF0010C2F
:1032F0006047DFE80CF0070802024FF00040A0F53D
:10330000800010BD0846420018BFD2F1807288BF0D
:1033100000F0004010BDFF2141EAD050C0057047C9
:1033200000000000C1C0000081C100004001000099
:1033300001C30000C00300008002000041C2000081
:1033400001C60000C00600008007000041C7000061
:1033500000050000C1C5000081C400004004000059
:1033600001CC0000C00C0000800D000041CD000029
:10337000000F0000C1CF000081CE0000400E000011
:10338000000A0000C1CA000081CB0000400B000011
:1033900001C90000C00900008008000041C8000009
:1033A00001D80000C01800008019000041D90000B9
:1033B000001B0000C1DB000081DA0000401A0000A1
:1033C000001E0000C1DE000081DF0000401F000081
:1033D00001DD0000C01D0000801C000041DC000079
:1033E00000140000C1D4000081D500004015000089
:1033F00001D70000C01700008016000041D6000071
:1034000001D20000C01200008013000041D3000070
:1034100000110000C1D1000081D000004010000068
:1034200001F00000C03000008031000041F10000D8
:1034300000330000C1F3000081F2000040320000C0
:1034400000360000C1F6000081F7000040370000A0
:1034500001F50000C03500008034000041F4000098
:10346000003C0000C1FC000081FD0000403D000068
:1034700001FF0000C03F0000803E000041FE000050
:1034800001FA0000C03A0000803B000041FB000050
:1034900000390000C1F9000081F800004038000048
:1034A00000280000C1E8000081E900004029000078
:1034B00001EB0000C02B0000802A000041EA000060
:1034C00001EE0000C02E0000802F000041EF000040
:1034D000002D0000C1ED000081EC0000402C000038
:1034E00001E40000C02400008025000041E5000048
:1034F00000270000C1E7000081E600004026000030
:1035000000220000C1E2000081E30000402300002F
:1035100001E10000C02100008020000041E0000027
:1035200001A00000C06000008061000041A1000017
:1035300000630000C1A3000081A2000040620000FF
:1035400000660000C1A6000081A7000040670000DF
:1035500001A50000C06500008064000041A40000D7
:10356000006C0000C1AC000081AD0000406D0000A7
:1035700001AF0000C06F0000806E000041AE00008F
:1035800001AA0000C06A0000806B000041AB00008F
:1035900000690000C1A9000081A800004068000087
:1035A00000780000C1B8000081B900004079000037
:1035B00001BB0000C07B0000807A000041BA00001F
:1035C00001BE0000C07E0000807F000041BF0000FF
:1035D000007D0000C1BD000081BC0000407C0000F7
:1035E00001B40000C07400008075000041B5000007
:1035F00000770000C1B7000081B6000040760000EF
:1036000000720000C1B2000081B3000040730000EE
:1036100001B10000C07100008070000041B00000E6
:1036200000500000C1900000819100004051000056
:1036300001930000C053000080520000419200003E
:1036400001960000C056000080570000419700001E
:1036500000550000C1950000819400004054000016
:10366000019C0000C05C0000805D0000419D0000E6
:10367000005F0000C19F0000819E0000405E0000CE
:10368000005A0000C19A0000819B0000405B0000CE
:1036900001990000C05900008058000041980000C6
:1036A00001880000C04800008049000041890000F6
:1036B000004B0000C18B0000818A0000404A0000DE
:1036C000004E0000C18E0000818F0000404F0000BE
:1036D000018D0000C04D0000804C0000418C0000B6
:1036E00000440000C18400008185000040450000C6
:1036F00001870000C04700008046000041860000AE
:1037000001820000C04200008043000041830000AD
:1037100000410000C18100008180000040400000A5
:1037200040370008000000203C0000006C01000849
:103730007C3700083C0000206C070000880100086E
:1037400000A24A040000000000000000010203047F
:10375000060708090000000000000000000000004B
:103760000000000000000000000102030401020349
:0C37700004060708090204060800000017
:0400000508000131BD
:00000001FF
